{
  "_format": "hh-sol-artifact-1",
  "contractName": "SupplyChain",
  "sourceName": "contracts/SupplyChain.sol",
  "abi": [
    {
      "inputs": [],
      "stateMutability": "nonpayable",
      "type": "constructor"
    },
    {
      "anonymous": false,
      "inputs": [
        {
          "indexed": true,
          "internalType": "uint256",
          "name": "_itemId",
          "type": "uint256"
        }
      ],
      "name": "ItemManufactured",
      "type": "event"
    },
    {
      "anonymous": false,
      "inputs": [
        {
          "indexed": true,
          "internalType": "uint256",
          "name": "_itemId",
          "type": "uint256"
        }
      ],
      "name": "ItemShippedToDistributor",
      "type": "event"
    },
    {
      "anonymous": false,
      "inputs": [
        {
          "indexed": true,
          "internalType": "uint256",
          "name": "_itemId",
          "type": "uint256"
        }
      ],
      "name": "ItemShippedToRetailer",
      "type": "event"
    },
    {
      "anonymous": false,
      "inputs": [
        {
          "indexed": true,
          "internalType": "uint256",
          "name": "_itemId",
          "type": "uint256"
        }
      ],
      "name": "ItemSold",
      "type": "event"
    },
    {
      "anonymous": false,
      "inputs": [
        {
          "indexed": true,
          "internalType": "address",
          "name": "_user",
          "type": "address"
        }
      ],
      "name": "VerificationApproved",
      "type": "event"
    },
    {
      "anonymous": false,
      "inputs": [
        {
          "indexed": true,
          "internalType": "address",
          "name": "_user",
          "type": "address"
        }
      ],
      "name": "VerificationRejected",
      "type": "event"
    },
    {
      "inputs": [
        {
          "internalType": "address",
          "name": "_user",
          "type": "address"
        }
      ],
      "name": "approveVerification",
      "outputs": [],
      "stateMutability": "nonpayable",
      "type": "function"
    },
    {
      "inputs": [
        {
          "internalType": "address",
          "name": "_distributorAddress",
          "type": "address"
        }
      ],
      "name": "getDistributorItems",
      "outputs": [
        {
          "components": [
            {
              "internalType": "string",
              "name": "name",
              "type": "string"
            },
            {
              "internalType": "string",
              "name": "description",
              "type": "string"
            },
            {
              "internalType": "enum SupplyChain.State",
              "name": "state",
              "type": "uint8"
            },
            {
              "components": [
                {
                  "internalType": "address",
                  "name": "id",
                  "type": "address"
                },
                {
                  "internalType": "enum SupplyChain.Role",
                  "name": "role",
                  "type": "uint8"
                },
                {
                  "internalType": "string",
                  "name": "name",
                  "type": "string"
                },
                {
                  "internalType": "string",
                  "name": "location",
                  "type": "string"
                },
                {
                  "internalType": "enum SupplyChain.VerificationStatus",
                  "name": "verificationStatus",
                  "type": "uint8"
                }
              ],
              "internalType": "struct SupplyChain.Participant",
              "name": "manufacturer",
              "type": "tuple"
            },
            {
              "components": [
                {
                  "internalType": "address",
                  "name": "id",
                  "type": "address"
                },
                {
                  "internalType": "enum SupplyChain.Role",
                  "name": "role",
                  "type": "uint8"
                },
                {
                  "internalType": "string",
                  "name": "name",
                  "type": "string"
                },
                {
                  "internalType": "string",
                  "name": "location",
                  "type": "string"
                },
                {
                  "internalType": "enum SupplyChain.VerificationStatus",
                  "name": "verificationStatus",
                  "type": "uint8"
                }
              ],
              "internalType": "struct SupplyChain.Participant",
              "name": "distributor",
              "type": "tuple"
            },
            {
              "components": [
                {
                  "internalType": "address",
                  "name": "id",
                  "type": "address"
                },
                {
                  "internalType": "enum SupplyChain.Role",
                  "name": "role",
                  "type": "uint8"
                },
                {
                  "internalType": "string",
                  "name": "name",
                  "type": "string"
                },
                {
                  "internalType": "string",
                  "name": "location",
                  "type": "string"
                },
                {
                  "internalType": "enum SupplyChain.VerificationStatus",
                  "name": "verificationStatus",
                  "type": "uint8"
                }
              ],
              "internalType": "struct SupplyChain.Participant",
              "name": "retailer",
              "type": "tuple"
            },
            {
              "internalType": "uint256",
              "name": "manufacturedTimestamp",
              "type": "uint256"
            },
            {
              "internalType": "uint256",
              "name": "shippedToDistributorTimestamp",
              "type": "uint256"
            },
            {
              "internalType": "uint256",
              "name": "shippedToRetailerTimestamp",
              "type": "uint256"
            },
            {
              "internalType": "uint256",
              "name": "soldTimestamp",
              "type": "uint256"
            },
            {
              "internalType": "uint256",
              "name": "id",
              "type": "uint256"
            }
          ],
          "internalType": "struct SupplyChain.Item[]",
          "name": "",
          "type": "tuple[]"
        }
      ],
      "stateMutability": "view",
      "type": "function"
    },
    {
      "inputs": [
        {
          "internalType": "uint256",
          "name": "_itemId",
          "type": "uint256"
        }
      ],
      "name": "getItemDetails",
      "outputs": [
        {
          "components": [
            {
              "internalType": "string",
              "name": "name",
              "type": "string"
            },
            {
              "internalType": "string",
              "name": "description",
              "type": "string"
            },
            {
              "internalType": "enum SupplyChain.State",
              "name": "state",
              "type": "uint8"
            },
            {
              "components": [
                {
                  "internalType": "address",
                  "name": "id",
                  "type": "address"
                },
                {
                  "internalType": "enum SupplyChain.Role",
                  "name": "role",
                  "type": "uint8"
                },
                {
                  "internalType": "string",
                  "name": "name",
                  "type": "string"
                },
                {
                  "internalType": "string",
                  "name": "location",
                  "type": "string"
                },
                {
                  "internalType": "enum SupplyChain.VerificationStatus",
                  "name": "verificationStatus",
                  "type": "uint8"
                }
              ],
              "internalType": "struct SupplyChain.Participant",
              "name": "manufacturer",
              "type": "tuple"
            },
            {
              "components": [
                {
                  "internalType": "address",
                  "name": "id",
                  "type": "address"
                },
                {
                  "internalType": "enum SupplyChain.Role",
                  "name": "role",
                  "type": "uint8"
                },
                {
                  "internalType": "string",
                  "name": "name",
                  "type": "string"
                },
                {
                  "internalType": "string",
                  "name": "location",
                  "type": "string"
                },
                {
                  "internalType": "enum SupplyChain.VerificationStatus",
                  "name": "verificationStatus",
                  "type": "uint8"
                }
              ],
              "internalType": "struct SupplyChain.Participant",
              "name": "distributor",
              "type": "tuple"
            },
            {
              "components": [
                {
                  "internalType": "address",
                  "name": "id",
                  "type": "address"
                },
                {
                  "internalType": "enum SupplyChain.Role",
                  "name": "role",
                  "type": "uint8"
                },
                {
                  "internalType": "string",
                  "name": "name",
                  "type": "string"
                },
                {
                  "internalType": "string",
                  "name": "location",
                  "type": "string"
                },
                {
                  "internalType": "enum SupplyChain.VerificationStatus",
                  "name": "verificationStatus",
                  "type": "uint8"
                }
              ],
              "internalType": "struct SupplyChain.Participant",
              "name": "retailer",
              "type": "tuple"
            },
            {
              "internalType": "uint256",
              "name": "manufacturedTimestamp",
              "type": "uint256"
            },
            {
              "internalType": "uint256",
              "name": "shippedToDistributorTimestamp",
              "type": "uint256"
            },
            {
              "internalType": "uint256",
              "name": "shippedToRetailerTimestamp",
              "type": "uint256"
            },
            {
              "internalType": "uint256",
              "name": "soldTimestamp",
              "type": "uint256"
            },
            {
              "internalType": "uint256",
              "name": "id",
              "type": "uint256"
            }
          ],
          "internalType": "struct SupplyChain.Item",
          "name": "",
          "type": "tuple"
        }
      ],
      "stateMutability": "view",
      "type": "function"
    },
    {
      "inputs": [
        {
          "internalType": "address",
          "name": "_manufacturerAddress",
          "type": "address"
        }
      ],
      "name": "getManufacturerItems",
      "outputs": [
        {
          "components": [
            {
              "internalType": "string",
              "name": "name",
              "type": "string"
            },
            {
              "internalType": "string",
              "name": "description",
              "type": "string"
            },
            {
              "internalType": "enum SupplyChain.State",
              "name": "state",
              "type": "uint8"
            },
            {
              "components": [
                {
                  "internalType": "address",
                  "name": "id",
                  "type": "address"
                },
                {
                  "internalType": "enum SupplyChain.Role",
                  "name": "role",
                  "type": "uint8"
                },
                {
                  "internalType": "string",
                  "name": "name",
                  "type": "string"
                },
                {
                  "internalType": "string",
                  "name": "location",
                  "type": "string"
                },
                {
                  "internalType": "enum SupplyChain.VerificationStatus",
                  "name": "verificationStatus",
                  "type": "uint8"
                }
              ],
              "internalType": "struct SupplyChain.Participant",
              "name": "manufacturer",
              "type": "tuple"
            },
            {
              "components": [
                {
                  "internalType": "address",
                  "name": "id",
                  "type": "address"
                },
                {
                  "internalType": "enum SupplyChain.Role",
                  "name": "role",
                  "type": "uint8"
                },
                {
                  "internalType": "string",
                  "name": "name",
                  "type": "string"
                },
                {
                  "internalType": "string",
                  "name": "location",
                  "type": "string"
                },
                {
                  "internalType": "enum SupplyChain.VerificationStatus",
                  "name": "verificationStatus",
                  "type": "uint8"
                }
              ],
              "internalType": "struct SupplyChain.Participant",
              "name": "distributor",
              "type": "tuple"
            },
            {
              "components": [
                {
                  "internalType": "address",
                  "name": "id",
                  "type": "address"
                },
                {
                  "internalType": "enum SupplyChain.Role",
                  "name": "role",
                  "type": "uint8"
                },
                {
                  "internalType": "string",
                  "name": "name",
                  "type": "string"
                },
                {
                  "internalType": "string",
                  "name": "location",
                  "type": "string"
                },
                {
                  "internalType": "enum SupplyChain.VerificationStatus",
                  "name": "verificationStatus",
                  "type": "uint8"
                }
              ],
              "internalType": "struct SupplyChain.Participant",
              "name": "retailer",
              "type": "tuple"
            },
            {
              "internalType": "uint256",
              "name": "manufacturedTimestamp",
              "type": "uint256"
            },
            {
              "internalType": "uint256",
              "name": "shippedToDistributorTimestamp",
              "type": "uint256"
            },
            {
              "internalType": "uint256",
              "name": "shippedToRetailerTimestamp",
              "type": "uint256"
            },
            {
              "internalType": "uint256",
              "name": "soldTimestamp",
              "type": "uint256"
            },
            {
              "internalType": "uint256",
              "name": "id",
              "type": "uint256"
            }
          ],
          "internalType": "struct SupplyChain.Item[]",
          "name": "",
          "type": "tuple[]"
        }
      ],
      "stateMutability": "view",
      "type": "function"
    },
    {
      "inputs": [],
      "name": "getParticipantsWithPendingVerification",
      "outputs": [
        {
          "components": [
            {
              "internalType": "address",
              "name": "id",
              "type": "address"
            },
            {
              "internalType": "enum SupplyChain.Role",
              "name": "role",
              "type": "uint8"
            },
            {
              "internalType": "string",
              "name": "name",
              "type": "string"
            },
            {
              "internalType": "string",
              "name": "location",
              "type": "string"
            },
            {
              "internalType": "enum SupplyChain.VerificationStatus",
              "name": "verificationStatus",
              "type": "uint8"
            }
          ],
          "internalType": "struct SupplyChain.Participant[]",
          "name": "",
          "type": "tuple[]"
        }
      ],
      "stateMutability": "view",
      "type": "function"
    },
    {
      "inputs": [
        {
          "internalType": "address",
          "name": "_retailerAddress",
          "type": "address"
        }
      ],
      "name": "getRetailerItems",
      "outputs": [
        {
          "components": [
            {
              "internalType": "string",
              "name": "name",
              "type": "string"
            },
            {
              "internalType": "string",
              "name": "description",
              "type": "string"
            },
            {
              "internalType": "enum SupplyChain.State",
              "name": "state",
              "type": "uint8"
            },
            {
              "components": [
                {
                  "internalType": "address",
                  "name": "id",
                  "type": "address"
                },
                {
                  "internalType": "enum SupplyChain.Role",
                  "name": "role",
                  "type": "uint8"
                },
                {
                  "internalType": "string",
                  "name": "name",
                  "type": "string"
                },
                {
                  "internalType": "string",
                  "name": "location",
                  "type": "string"
                },
                {
                  "internalType": "enum SupplyChain.VerificationStatus",
                  "name": "verificationStatus",
                  "type": "uint8"
                }
              ],
              "internalType": "struct SupplyChain.Participant",
              "name": "manufacturer",
              "type": "tuple"
            },
            {
              "components": [
                {
                  "internalType": "address",
                  "name": "id",
                  "type": "address"
                },
                {
                  "internalType": "enum SupplyChain.Role",
                  "name": "role",
                  "type": "uint8"
                },
                {
                  "internalType": "string",
                  "name": "name",
                  "type": "string"
                },
                {
                  "internalType": "string",
                  "name": "location",
                  "type": "string"
                },
                {
                  "internalType": "enum SupplyChain.VerificationStatus",
                  "name": "verificationStatus",
                  "type": "uint8"
                }
              ],
              "internalType": "struct SupplyChain.Participant",
              "name": "distributor",
              "type": "tuple"
            },
            {
              "components": [
                {
                  "internalType": "address",
                  "name": "id",
                  "type": "address"
                },
                {
                  "internalType": "enum SupplyChain.Role",
                  "name": "role",
                  "type": "uint8"
                },
                {
                  "internalType": "string",
                  "name": "name",
                  "type": "string"
                },
                {
                  "internalType": "string",
                  "name": "location",
                  "type": "string"
                },
                {
                  "internalType": "enum SupplyChain.VerificationStatus",
                  "name": "verificationStatus",
                  "type": "uint8"
                }
              ],
              "internalType": "struct SupplyChain.Participant",
              "name": "retailer",
              "type": "tuple"
            },
            {
              "internalType": "uint256",
              "name": "manufacturedTimestamp",
              "type": "uint256"
            },
            {
              "internalType": "uint256",
              "name": "shippedToDistributorTimestamp",
              "type": "uint256"
            },
            {
              "internalType": "uint256",
              "name": "shippedToRetailerTimestamp",
              "type": "uint256"
            },
            {
              "internalType": "uint256",
              "name": "soldTimestamp",
              "type": "uint256"
            },
            {
              "internalType": "uint256",
              "name": "id",
              "type": "uint256"
            }
          ],
          "internalType": "struct SupplyChain.Item[]",
          "name": "",
          "type": "tuple[]"
        }
      ],
      "stateMutability": "view",
      "type": "function"
    },
    {
      "inputs": [],
      "name": "itemCount",
      "outputs": [
        {
          "internalType": "uint256",
          "name": "",
          "type": "uint256"
        }
      ],
      "stateMutability": "view",
      "type": "function"
    },
    {
      "inputs": [
        {
          "internalType": "uint256",
          "name": "",
          "type": "uint256"
        }
      ],
      "name": "items",
      "outputs": [
        {
          "internalType": "string",
          "name": "name",
          "type": "string"
        },
        {
          "internalType": "string",
          "name": "description",
          "type": "string"
        },
        {
          "internalType": "enum SupplyChain.State",
          "name": "state",
          "type": "uint8"
        },
        {
          "components": [
            {
              "internalType": "address",
              "name": "id",
              "type": "address"
            },
            {
              "internalType": "enum SupplyChain.Role",
              "name": "role",
              "type": "uint8"
            },
            {
              "internalType": "string",
              "name": "name",
              "type": "string"
            },
            {
              "internalType": "string",
              "name": "location",
              "type": "string"
            },
            {
              "internalType": "enum SupplyChain.VerificationStatus",
              "name": "verificationStatus",
              "type": "uint8"
            }
          ],
          "internalType": "struct SupplyChain.Participant",
          "name": "manufacturer",
          "type": "tuple"
        },
        {
          "components": [
            {
              "internalType": "address",
              "name": "id",
              "type": "address"
            },
            {
              "internalType": "enum SupplyChain.Role",
              "name": "role",
              "type": "uint8"
            },
            {
              "internalType": "string",
              "name": "name",
              "type": "string"
            },
            {
              "internalType": "string",
              "name": "location",
              "type": "string"
            },
            {
              "internalType": "enum SupplyChain.VerificationStatus",
              "name": "verificationStatus",
              "type": "uint8"
            }
          ],
          "internalType": "struct SupplyChain.Participant",
          "name": "distributor",
          "type": "tuple"
        },
        {
          "components": [
            {
              "internalType": "address",
              "name": "id",
              "type": "address"
            },
            {
              "internalType": "enum SupplyChain.Role",
              "name": "role",
              "type": "uint8"
            },
            {
              "internalType": "string",
              "name": "name",
              "type": "string"
            },
            {
              "internalType": "string",
              "name": "location",
              "type": "string"
            },
            {
              "internalType": "enum SupplyChain.VerificationStatus",
              "name": "verificationStatus",
              "type": "uint8"
            }
          ],
          "internalType": "struct SupplyChain.Participant",
          "name": "retailer",
          "type": "tuple"
        },
        {
          "internalType": "uint256",
          "name": "manufacturedTimestamp",
          "type": "uint256"
        },
        {
          "internalType": "uint256",
          "name": "shippedToDistributorTimestamp",
          "type": "uint256"
        },
        {
          "internalType": "uint256",
          "name": "shippedToRetailerTimestamp",
          "type": "uint256"
        },
        {
          "internalType": "uint256",
          "name": "soldTimestamp",
          "type": "uint256"
        },
        {
          "internalType": "uint256",
          "name": "id",
          "type": "uint256"
        }
      ],
      "stateMutability": "view",
      "type": "function"
    },
    {
      "inputs": [
        {
          "internalType": "string",
          "name": "_itemName",
          "type": "string"
        },
        {
          "internalType": "string",
          "name": "_itemDescription",
          "type": "string"
        }
      ],
      "name": "manufactureItem",
      "outputs": [],
      "stateMutability": "nonpayable",
      "type": "function"
    },
    {
      "inputs": [],
      "name": "owner",
      "outputs": [
        {
          "internalType": "address",
          "name": "",
          "type": "address"
        }
      ],
      "stateMutability": "view",
      "type": "function"
    },
    {
      "inputs": [
        {
          "internalType": "uint256",
          "name": "",
          "type": "uint256"
        }
      ],
      "name": "participantKeys",
      "outputs": [
        {
          "internalType": "address",
          "name": "",
          "type": "address"
        }
      ],
      "stateMutability": "view",
      "type": "function"
    },
    {
      "inputs": [
        {
          "internalType": "address",
          "name": "",
          "type": "address"
        }
      ],
      "name": "participants",
      "outputs": [
        {
          "internalType": "address",
          "name": "id",
          "type": "address"
        },
        {
          "internalType": "enum SupplyChain.Role",
          "name": "role",
          "type": "uint8"
        },
        {
          "internalType": "string",
          "name": "name",
          "type": "string"
        },
        {
          "internalType": "string",
          "name": "location",
          "type": "string"
        },
        {
          "internalType": "enum SupplyChain.VerificationStatus",
          "name": "verificationStatus",
          "type": "uint8"
        }
      ],
      "stateMutability": "view",
      "type": "function"
    },
    {
      "inputs": [
        {
          "internalType": "enum SupplyChain.Role",
          "name": "_role",
          "type": "uint8"
        },
        {
          "internalType": "string",
          "name": "_name",
          "type": "string"
        },
        {
          "internalType": "string",
          "name": "_location",
          "type": "string"
        }
      ],
      "name": "registerUser",
      "outputs": [],
      "stateMutability": "nonpayable",
      "type": "function"
    },
    {
      "inputs": [
        {
          "internalType": "address",
          "name": "_user",
          "type": "address"
        }
      ],
      "name": "rejectVerification",
      "outputs": [],
      "stateMutability": "nonpayable",
      "type": "function"
    },
    {
      "inputs": [],
      "name": "requestVerification",
      "outputs": [],
      "stateMutability": "nonpayable",
      "type": "function"
    },
    {
      "inputs": [
        {
          "internalType": "uint256",
          "name": "_itemId",
          "type": "uint256"
        }
      ],
      "name": "sellItem",
      "outputs": [],
      "stateMutability": "nonpayable",
      "type": "function"
    },
    {
      "inputs": [
        {
          "internalType": "uint256",
          "name": "_itemId",
          "type": "uint256"
        },
        {
          "internalType": "address",
          "name": "_distributorAddress",
          "type": "address"
        }
      ],
      "name": "shipItemToDistributor",
      "outputs": [],
      "stateMutability": "nonpayable",
      "type": "function"
    },
    {
      "inputs": [
        {
          "internalType": "uint256",
          "name": "_itemId",
          "type": "uint256"
        },
        {
          "internalType": "address",
          "name": "_retailerAddress",
          "type": "address"
        }
      ],
      "name": "shipItemToRetailer",
      "outputs": [],
      "stateMutability": "nonpayable",
      "type": "function"
    }
  ],
  "bytecode": "0x60806040523480156200001157600080fd5b5033600460006101000a81548173ffffffffffffffffffffffffffffffffffffffff021916908373ffffffffffffffffffffffffffffffffffffffff1602179055506040518060a00160405280600460009054906101000a900473ffffffffffffffffffffffffffffffffffffffff1673ffffffffffffffffffffffffffffffffffffffff16815260200160006003811115620000b357620000b26200028f565b5b81526020016040518060400160405280600581526020017f4f776e657200000000000000000000000000000000000000000000000000000081525081526020016040518060400160405280600581526020017f45617274680000000000000000000000000000000000000000000000000000008152508152602001600260038111156200014557620001446200028f565b5b81525060026000600460009054906101000a900473ffffffffffffffffffffffffffffffffffffffff1673ffffffffffffffffffffffffffffffffffffffff1673ffffffffffffffffffffffffffffffffffffffff16815260200190815260200160002060008201518160000160006101000a81548173ffffffffffffffffffffffffffffffffffffffff021916908373ffffffffffffffffffffffffffffffffffffffff16021790555060208201518160000160146101000a81548160ff021916908360038111156200021e576200021d6200028f565b5b021790555060408201518160010190816200023a919062000538565b50606082015181600201908162000252919062000538565b5060808201518160030160006101000a81548160ff021916908360038111156200028157620002806200028f565b5b02179055509050506200061f565b7f4e487b7100000000000000000000000000000000000000000000000000000000600052602160045260246000fd5b600081519050919050565b7f4e487b7100000000000000000000000000000000000000000000000000000000600052604160045260246000fd5b7f4e487b7100000000000000000000000000000000000000000000000000000000600052602260045260246000fd5b600060028204905060018216806200034057607f821691505b602082108103620003565762000355620002f8565b5b50919050565b60008190508160005260206000209050919050565b60006020601f8301049050919050565b600082821b905092915050565b600060088302620003c07fffffffffffffffffffffffffffffffffffffffffffffffffffffffffffffffff8262000381565b620003cc868362000381565b95508019841693508086168417925050509392505050565b6000819050919050565b6000819050919050565b600062000419620004136200040d84620003e4565b620003ee565b620003e4565b9050919050565b6000819050919050565b6200043583620003f8565b6200044d620004448262000420565b8484546200038e565b825550505050565b600090565b6200046462000455565b620004718184846200042a565b505050565b5b8181101562000499576200048d6000826200045a565b60018101905062000477565b5050565b601f821115620004e857620004b2816200035c565b620004bd8462000371565b81016020851015620004cd578190505b620004e5620004dc8562000371565b83018262000476565b50505b505050565b600082821c905092915050565b60006200050d60001984600802620004ed565b1980831691505092915050565b6000620005288383620004fa565b9150826002028217905092915050565b6200054382620002be565b67ffffffffffffffff8111156200055f576200055e620002c9565b5b6200056b825462000327565b620005788282856200049d565b600060209050601f831160018114620005b057600084156200059b578287015190505b620005a785826200051a565b86555062000617565b601f198416620005c0866200035c565b60005b82811015620005ea57848901518255600182019150602085019450602081019050620005c3565b868310156200060a578489015162000606601f891682620004fa565b8355505b6001600288020188555050505b505050505050565b61568b806200062f6000396000f3fe608060405234801561001057600080fd5b50600436106101165760003560e01c80638da5cb5b116100a25780639a772079116100715780639a772079146102cf578063b0ea2b07146102eb578063bfb231d21461031b578063c4eef4a214610355578063c7bbe29a1461037157610116565b80638da5cb5b1461024957806391b6be9a1461026757806397c1db2e1461028357806398bb0f3b1461029f57610116565b80633f7fb53b116100e95780633f7fb53b146101a55780635306d324146101c15780635975b088146101df5780636bfb0d01146101fb57806373004ca01461021957610116565b806307ec30391461011b57806309e69ede146101255780630b0f105214610159578063155d8e5414610175575b600080fd5b6101236103a1565b005b61013f600480360381019061013a9190613be5565b610541565b604051610150959493929190613d70565b60405180910390f35b610173600480360381019061016e9190613e07565b6106c1565b005b61018f600480360381019061018a9190613be5565b610c1e565b60405161019c919061415f565b60405180910390f35b6101bf60048036038101906101ba9190613be5565b610d70565b005b6101c9610f66565b6040516101d69190614243565b60405180910390f35b6101f960048036038101906101f49190613e07565b6112c4565b005b610203611822565b6040516102109190614274565b60405180910390f35b610233600480360381019061022e919061428f565b611828565b60405161024091906143c7565b60405180910390f35b610251612044565b60405161025e91906143e9565b60405180910390f35b610281600480360381019061027c919061428f565b61206a565b005b61029d60048036038101906102989190614539565b6122da565b005b6102b960048036038101906102b4919061428f565b612b28565b6040516102c691906143e9565b60405180910390f35b6102e960048036038101906102e491906145d6565b612b67565b005b61030560048036038101906103009190613be5565b612e8c565b604051610312919061415f565b60405180910390f35b6103356004803603810190610330919061428f565b612fde565b60405161034c9b9a999897969594939291906146ed565b60405180910390f35b61036f600480360381019061036a9190613be5565b613743565b005b61038b60048036038101906103869190613be5565b61393a565b604051610398919061415f565b60405180910390f35b600060038111156103b5576103b4613c21565b5b600260003373ffffffffffffffffffffffffffffffffffffffff1673ffffffffffffffffffffffffffffffffffffffff16815260200190815260200160002060030160009054906101000a900460ff16600381111561041757610416613c21565b5b1480610495575060038081111561043157610430613c21565b5b600260003373ffffffffffffffffffffffffffffffffffffffff1673ffffffffffffffffffffffffffffffffffffffff16815260200190815260200160002060030160009054906101000a900460ff16600381111561049357610492613c21565b5b145b6104d4576040517f08c379a00000000000000000000000000000000000000000000000000000000081526004016104cb9061482d565b60405180910390fd5b6001600260003373ffffffffffffffffffffffffffffffffffffffff1673ffffffffffffffffffffffffffffffffffffffff16815260200190815260200160002060030160006101000a81548160ff0219169083600381111561053a57610539613c21565b5b0217905550565b60026020528060005260406000206000915090508060000160009054906101000a900473ffffffffffffffffffffffffffffffffffffffff16908060000160149054906101000a900460ff169080600101805461059d9061487c565b80601f01602080910402602001604051908101604052809291908181526020018280546105c99061487c565b80156106165780601f106105eb57610100808354040283529160200191610616565b820191906000526020600020905b8154815290600101906020018083116105f957829003601f168201915b50505050509080600201805461062b9061487c565b80601f01602080910402602001604051908101604052809291908181526020018280546106579061487c565b80156106a45780601f10610679576101008083540402835291602001916106a4565b820191906000526020600020905b81548152906001019060200180831161068757829003601f168201915b5050505050908060030160009054906101000a900460ff16905085565b600160038111156106d5576106d4613c21565b5b600260003373ffffffffffffffffffffffffffffffffffffffff1673ffffffffffffffffffffffffffffffffffffffff16815260200190815260200160002060000160149054906101000a900460ff16600381111561073757610736613c21565b5b14610777576040517f08c379a000000000000000000000000000000000000000000000000000000000815260040161076e9061491f565b60405180910390fd5b6002600381111561078b5761078a613c21565b5b600260008373ffffffffffffffffffffffffffffffffffffffff1673ffffffffffffffffffffffffffffffffffffffff16815260200190815260200160002060000160149054906101000a900460ff1660038111156107ed576107ec613c21565b5b1461082d576040517f08c379a00000000000000000000000000000000000000000000000000000000081526004016108249061498b565b60405180910390fd5b6000600381111561084157610840613c21565b5b6001600084815260200190815260200160002060020160009054906101000a900460ff16600381111561087757610876613c21565b5b146108b7576040517f08c379a00000000000000000000000000000000000000000000000000000000081526004016108ae90614a1d565b60405180910390fd5b3373ffffffffffffffffffffffffffffffffffffffff166001600084815260200190815260200160002060030160000160009054906101000a900473ffffffffffffffffffffffffffffffffffffffff1673ffffffffffffffffffffffffffffffffffffffff161461095e576040517f08c379a000000000000000000000000000000000000000000000000000000000815260040161095590614ad5565b60405180910390fd5b3373ffffffffffffffffffffffffffffffffffffffff168173ffffffffffffffffffffffffffffffffffffffff16036109cc576040517f08c379a00000000000000000000000000000000000000000000000000000000081526004016109c390614b67565b60405180910390fd5b600180600084815260200190815260200160002060020160006101000a81548160ff02191690836003811115610a0557610a04613c21565b5b0217905550600260008273ffffffffffffffffffffffffffffffffffffffff1673ffffffffffffffffffffffffffffffffffffffff168152602001908152602001600020600160008481526020019081526020016000206007016000820160009054906101000a900473ffffffffffffffffffffffffffffffffffffffff168160000160006101000a81548173ffffffffffffffffffffffffffffffffffffffff021916908373ffffffffffffffffffffffffffffffffffffffff1602179055506000820160149054906101000a900460ff168160000160146101000a81548160ff02191690836003811115610afe57610afd613c21565b5b021790555060018201816001019081610b179190614d49565b5060028201816002019081610b2c9190614d49565b506003820160009054906101000a900460ff168160030160006101000a81548160ff02191690836003811115610b6557610b64613c21565b5b0217905550905050600660008273ffffffffffffffffffffffffffffffffffffffff1673ffffffffffffffffffffffffffffffffffffffff168152602001908152602001600020829080600181540180825580915050600190039060005260206000200160009091909190915055426001600084815260200190815260200160002060100181905550817ea035d3fc290c5fbc3c5dac91b1d8fdb7d77a1db9152c97b5f8d035890b2f6a60405160405180910390a25050565b60606000600560008473ffffffffffffffffffffffffffffffffffffffff1673ffffffffffffffffffffffffffffffffffffffff168152602001908152602001600020805480602002602001604051908101604052809291908181526020018280548015610cab57602002820191906000526020600020905b815481526020019060010190808311610c97575b505050505090506000815167ffffffffffffffff811115610ccf57610cce61440e565b5b604051908082528060200260200182016040528015610d0857816020015b610cf5613a8c565b815260200190600190039081610ced5790505b50905060005b8251811015610d6557610d3a838281518110610d2d57610d2c614e31565b5b6020026020010151611828565b828281518110610d4d57610d4c614e31565b5b60200260200101819052508080600101915050610d0e565b508092505050919050565b600460009054906101000a900473ffffffffffffffffffffffffffffffffffffffff1673ffffffffffffffffffffffffffffffffffffffff163373ffffffffffffffffffffffffffffffffffffffff1614610e00576040517f08c379a0000000000000000000000000000000000000000000000000000000008152600401610df790614ed2565b60405180910390fd5b60016003811115610e1457610e13613c21565b5b600260008373ffffffffffffffffffffffffffffffffffffffff1673ffffffffffffffffffffffffffffffffffffffff16815260200190815260200160002060030160009054906101000a900460ff166003811115610e7657610e75613c21565b5b14610eb6576040517f08c379a0000000000000000000000000000000000000000000000000000000008152600401610ead90614f64565b60405180910390fd5b60028060008373ffffffffffffffffffffffffffffffffffffffff1673ffffffffffffffffffffffffffffffffffffffff16815260200190815260200160002060030160006101000a81548160ff02191690836003811115610f1b57610f1a613c21565b5b02179055508073ffffffffffffffffffffffffffffffffffffffff167fc08f4058f0b8ad2f4d0a56d453ba6498de665affab33a6f78d7d5ff85cbabcc560405160405180910390a250565b6060600060038054905067ffffffffffffffff811115610f8957610f8861440e565b5b604051908082528060200260200182016040528015610fc257816020015b610faf613b0a565b815260200190600190039081610fa75790505b50905060005b6003805490508110156112bc5760006002600060038481548110610fef57610fee614e31565b5b9060005260206000200160009054906101000a900473ffffffffffffffffffffffffffffffffffffffff1673ffffffffffffffffffffffffffffffffffffffff1673ffffffffffffffffffffffffffffffffffffffff16815260200190815260200160002090506001600381111561106a57611069613c21565b5b8160030160009054906101000a900460ff16600381111561108e5761108d613c21565b5b036112ae57806040518060a00160405290816000820160009054906101000a900473ffffffffffffffffffffffffffffffffffffffff1673ffffffffffffffffffffffffffffffffffffffff1673ffffffffffffffffffffffffffffffffffffffff1681526020016000820160149054906101000a900460ff16600381111561111a57611119613c21565b5b600381111561112c5761112b613c21565b5b81526020016001820180546111409061487c565b80601f016020809104026020016040519081016040528092919081815260200182805461116c9061487c565b80156111b95780601f1061118e576101008083540402835291602001916111b9565b820191906000526020600020905b81548152906001019060200180831161119c57829003601f168201915b505050505081526020016002820180546111d29061487c565b80601f01602080910402602001604051908101604052809291908181526020018280546111fe9061487c565b801561124b5780601f106112205761010080835404028352916020019161124b565b820191906000526020600020905b81548152906001019060200180831161122e57829003601f168201915b505050505081526020016003820160009054906101000a900460ff16600381111561127957611278613c21565b5b600381111561128b5761128a613c21565b5b815250508383815181106112a2576112a1614e31565b5b60200260200101819052505b508080600101915050610fc8565b508091505090565b600260038111156112d8576112d7613c21565b5b600260003373ffffffffffffffffffffffffffffffffffffffff1673ffffffffffffffffffffffffffffffffffffffff16815260200190815260200160002060000160149054906101000a900460ff16600381111561133a57611339613c21565b5b1461137a576040517f08c379a000000000000000000000000000000000000000000000000000000000815260040161137190614ff6565b60405180910390fd5b60038081111561138d5761138c613c21565b5b600260008373ffffffffffffffffffffffffffffffffffffffff1673ffffffffffffffffffffffffffffffffffffffff16815260200190815260200160002060000160149054906101000a900460ff1660038111156113ef576113ee613c21565b5b1461142f576040517f08c379a000000000000000000000000000000000000000000000000000000000815260040161142690615062565b60405180910390fd5b6001600381111561144357611442613c21565b5b6001600084815260200190815260200160002060020160009054906101000a900460ff16600381111561147957611478613c21565b5b146114b9576040517f08c379a00000000000000000000000000000000000000000000000000000000081526004016114b0906150f4565b60405180910390fd5b3373ffffffffffffffffffffffffffffffffffffffff166001600084815260200190815260200160002060070160000160009054906101000a900473ffffffffffffffffffffffffffffffffffffffff1673ffffffffffffffffffffffffffffffffffffffff1614611560576040517f08c379a000000000000000000000000000000000000000000000000000000000815260040161155790615186565b60405180910390fd5b3373ffffffffffffffffffffffffffffffffffffffff168173ffffffffffffffffffffffffffffffffffffffff16036115ce576040517f08c379a00000000000000000000000000000000000000000000000000000000081526004016115c590614b67565b60405180910390fd5b60026001600084815260200190815260200160002060020160006101000a81548160ff0219169083600381111561160857611607613c21565b5b0217905550600260008273ffffffffffffffffffffffffffffffffffffffff1673ffffffffffffffffffffffffffffffffffffffff16815260200190815260200160002060016000848152602001908152602001600020600b016000820160009054906101000a900473ffffffffffffffffffffffffffffffffffffffff168160000160006101000a81548173ffffffffffffffffffffffffffffffffffffffff021916908373ffffffffffffffffffffffffffffffffffffffff1602179055506000820160149054906101000a900460ff168160000160146101000a81548160ff0219169083600381111561170157611700613c21565b5b02179055506001820181600101908161171a9190614d49565b506002820181600201908161172f9190614d49565b506003820160009054906101000a900460ff168160030160006101000a81548160ff0219169083600381111561176857611767613c21565b5b0217905550905050600760008273ffffffffffffffffffffffffffffffffffffffff1673ffffffffffffffffffffffffffffffffffffffff168152602001908152602001600020829080600181540180825580915050600190039060005260206000200160009091909190915055426001600084815260200190815260200160002060110181905550817ffdc9c1b22f0da57a19aa2ddffa4066c50c121d860bbd3a37586d16b4acd8a70c60405160405180910390a25050565b60005481565b611830613a8c565b60005482111580156118425750600082115b611881576040517f08c379a0000000000000000000000000000000000000000000000000000000008152600401611878906151f2565b60405180910390fd5b60016000838152602001908152602001600020604051806101600160405290816000820180546118b09061487c565b80601f01602080910402602001604051908101604052809291908181526020018280546118dc9061487c565b80156119295780601f106118fe57610100808354040283529160200191611929565b820191906000526020600020905b81548152906001019060200180831161190c57829003601f168201915b505050505081526020016001820180546119429061487c565b80601f016020809104026020016040519081016040528092919081815260200182805461196e9061487c565b80156119bb5780601f10611990576101008083540402835291602001916119bb565b820191906000526020600020905b81548152906001019060200180831161199e57829003601f168201915b505050505081526020016002820160009054906101000a900460ff1660038111156119e9576119e8613c21565b5b60038111156119fb576119fa613c21565b5b8152602001600382016040518060a00160405290816000820160009054906101000a900473ffffffffffffffffffffffffffffffffffffffff1673ffffffffffffffffffffffffffffffffffffffff1673ffffffffffffffffffffffffffffffffffffffff1681526020016000820160149054906101000a900460ff166003811115611a8a57611a89613c21565b5b6003811115611a9c57611a9b613c21565b5b8152602001600182018054611ab09061487c565b80601f0160208091040260200160405190810160405280929190818152602001828054611adc9061487c565b8015611b295780601f10611afe57610100808354040283529160200191611b29565b820191906000526020600020905b815481529060010190602001808311611b0c57829003601f168201915b50505050508152602001600282018054611b429061487c565b80601f0160208091040260200160405190810160405280929190818152602001828054611b6e9061487c565b8015611bbb5780601f10611b9057610100808354040283529160200191611bbb565b820191906000526020600020905b815481529060010190602001808311611b9e57829003601f168201915b505050505081526020016003820160009054906101000a900460ff166003811115611be957611be8613c21565b5b6003811115611bfb57611bfa613c21565b5b815250508152602001600782016040518060a00160405290816000820160009054906101000a900473ffffffffffffffffffffffffffffffffffffffff1673ffffffffffffffffffffffffffffffffffffffff1673ffffffffffffffffffffffffffffffffffffffff1681526020016000820160149054906101000a900460ff166003811115611c8e57611c8d613c21565b5b6003811115611ca057611c9f613c21565b5b8152602001600182018054611cb49061487c565b80601f0160208091040260200160405190810160405280929190818152602001828054611ce09061487c565b8015611d2d5780601f10611d0257610100808354040283529160200191611d2d565b820191906000526020600020905b815481529060010190602001808311611d1057829003601f168201915b50505050508152602001600282018054611d469061487c565b80601f0160208091040260200160405190810160405280929190818152602001828054611d729061487c565b8015611dbf5780601f10611d9457610100808354040283529160200191611dbf565b820191906000526020600020905b815481529060010190602001808311611da257829003601f168201915b505050505081526020016003820160009054906101000a900460ff166003811115611ded57611dec613c21565b5b6003811115611dff57611dfe613c21565b5b815250508152602001600b82016040518060a00160405290816000820160009054906101000a900473ffffffffffffffffffffffffffffffffffffffff1673ffffffffffffffffffffffffffffffffffffffff1673ffffffffffffffffffffffffffffffffffffffff1681526020016000820160149054906101000a900460ff166003811115611e9257611e91613c21565b5b6003811115611ea457611ea3613c21565b5b8152602001600182018054611eb89061487c565b80601f0160208091040260200160405190810160405280929190818152602001828054611ee49061487c565b8015611f315780601f10611f0657610100808354040283529160200191611f31565b820191906000526020600020905b815481529060010190602001808311611f1457829003601f168201915b50505050508152602001600282018054611f4a9061487c565b80601f0160208091040260200160405190810160405280929190818152602001828054611f769061487c565b8015611fc35780601f10611f9857610100808354040283529160200191611fc3565b820191906000526020600020905b815481529060010190602001808311611fa657829003601f168201915b505050505081526020016003820160009054906101000a900460ff166003811115611ff157611ff0613c21565b5b600381111561200357612002613c21565b5b815250508152602001600f82015481526020016010820154815260200160118201548152602001601282015481526020016013820154815250509050919050565b600460009054906101000a900473ffffffffffffffffffffffffffffffffffffffff1681565b60038081111561207d5761207c613c21565b5b600260003373ffffffffffffffffffffffffffffffffffffffff1673ffffffffffffffffffffffffffffffffffffffff16815260200190815260200160002060000160149054906101000a900460ff1660038111156120df576120de613c21565b5b1461211f576040517f08c379a000000000000000000000000000000000000000000000000000000000815260040161211690615284565b60405180910390fd5b3373ffffffffffffffffffffffffffffffffffffffff1660016000838152602001908152602001600020600b0160000160009054906101000a900473ffffffffffffffffffffffffffffffffffffffff1673ffffffffffffffffffffffffffffffffffffffff16146121c6576040517f08c379a00000000000000000000000000000000000000000000000000000000081526004016121bd90615316565b60405180910390fd5b600260038111156121da576121d9613c21565b5b6001600083815260200190815260200160002060020160009054906101000a900460ff1660038111156122105761220f613c21565b5b14612250576040517f08c379a000000000000000000000000000000000000000000000000000000000815260040161224790615382565b60405180910390fd5b60036001600083815260200190815260200160002060020160006101000a81548160ff0219169083600381111561228a57612289613c21565b5b0217905550426001600083815260200190815260200160002060120181905550807fadf6d10d44a697fd240c9a1ef648f41cd3fdb3d0381c241842dcd46b3dfbd04160405160405180910390a250565b600160038111156122ee576122ed613c21565b5b600260003373ffffffffffffffffffffffffffffffffffffffff1673ffffffffffffffffffffffffffffffffffffffff16815260200190815260200160002060000160149054906101000a900460ff1660038111156123505761234f613c21565b5b14612390576040517f08c379a000000000000000000000000000000000000000000000000000000000815260040161238790615414565b60405180910390fd5b6000808154809291906123a290615463565b91905055506000604051806101600160405280848152602001838152602001600060038111156123d5576123d4613c21565b5b8152602001600260003373ffffffffffffffffffffffffffffffffffffffff1673ffffffffffffffffffffffffffffffffffffffff1681526020019081526020016000206040518060a00160405290816000820160009054906101000a900473ffffffffffffffffffffffffffffffffffffffff1673ffffffffffffffffffffffffffffffffffffffff1673ffffffffffffffffffffffffffffffffffffffff1681526020016000820160149054906101000a900460ff16600381111561249f5761249e613c21565b5b60038111156124b1576124b0613c21565b5b81526020016001820180546124c59061487c565b80601f01602080910402602001604051908101604052809291908181526020018280546124f19061487c565b801561253e5780601f106125135761010080835404028352916020019161253e565b820191906000526020600020905b81548152906001019060200180831161252157829003601f168201915b505050505081526020016002820180546125579061487c565b80601f01602080910402602001604051908101604052809291908181526020018280546125839061487c565b80156125d05780601f106125a5576101008083540402835291602001916125d0565b820191906000526020600020905b8154815290600101906020018083116125b357829003601f168201915b505050505081526020016003820160009054906101000a900460ff1660038111156125fe576125fd613c21565b5b60038111156126105761260f613c21565b5b8152505081526020016040518060a00160405280600073ffffffffffffffffffffffffffffffffffffffff1681526020016002600381111561265557612654613c21565b5b81526020016040518060200160405280600081525081526020016040518060200160405280600081525081526020016000600381111561269857612697613c21565b5b81525081526020016040518060a00160405280600073ffffffffffffffffffffffffffffffffffffffff1681526020016003808111156126db576126da613c21565b5b81526020016040518060200160405280600081525081526020016040518060200160405280600081525081526020016000600381111561271e5761271d613c21565b5b81525081526020014281526020016000815260200160008152602001600081526020016000548152509050806001600080548152602001908152602001600020600082015181600001908161277391906154ab565b50602082015181600101908161278991906154ab565b5060408201518160020160006101000a81548160ff021916908360038111156127b5576127b4613c21565b5b021790555060608201518160030160008201518160000160006101000a81548173ffffffffffffffffffffffffffffffffffffffff021916908373ffffffffffffffffffffffffffffffffffffffff16021790555060208201518160000160146101000a81548160ff0219169083600381111561283557612834613c21565b5b0217905550604082015181600101908161284f91906154ab565b50606082015181600201908161286591906154ab565b5060808201518160030160006101000a81548160ff0219169083600381111561289157612890613c21565b5b0217905550505060808201518160070160008201518160000160006101000a81548173ffffffffffffffffffffffffffffffffffffffff021916908373ffffffffffffffffffffffffffffffffffffffff16021790555060208201518160000160146101000a81548160ff0219169083600381111561291357612912613c21565b5b0217905550604082015181600101908161292d91906154ab565b50606082015181600201908161294391906154ab565b5060808201518160030160006101000a81548160ff0219169083600381111561296f5761296e613c21565b5b0217905550505060a082015181600b0160008201518160000160006101000a81548173ffffffffffffffffffffffffffffffffffffffff021916908373ffffffffffffffffffffffffffffffffffffffff16021790555060208201518160000160146101000a81548160ff021916908360038111156129f1576129f0613c21565b5b02179055506040820151816001019081612a0b91906154ab565b506060820151816002019081612a2191906154ab565b5060808201518160030160006101000a81548160ff02191690836003811115612a4d57612a4c613c21565b5b0217905550505060c082015181600f015560e08201518160100155610100820151816011015561012082015181601201556101408201518160130155905050600560003373ffffffffffffffffffffffffffffffffffffffff1673ffffffffffffffffffffffffffffffffffffffff16815260200190815260200160002060005490806001815401808255809150506001900390600052602060002001600090919091909150556000547f10fa3189f08c22b87bab9f8f7d565ca47f0ea54cdd124f46eb1ac8a47b21e82f60405160405180910390a2505050565b60038181548110612b3857600080fd5b906000526020600020016000915054906101000a900473ffffffffffffffffffffffffffffffffffffffff1681565b600460009054906101000a900473ffffffffffffffffffffffffffffffffffffffff1673ffffffffffffffffffffffffffffffffffffffff163373ffffffffffffffffffffffffffffffffffffffff1603612bf7576040517f08c379a0000000000000000000000000000000000000000000000000000000008152600401612bee906155c9565b60405180910390fd5b60006003811115612c0b57612c0a613c21565b5b600260003373ffffffffffffffffffffffffffffffffffffffff1673ffffffffffffffffffffffffffffffffffffffff16815260200190815260200160002060000160149054906101000a900460ff166003811115612c6d57612c6c613c21565b5b14612cad576040517f08c379a0000000000000000000000000000000000000000000000000000000008152600401612ca490615635565b60405180910390fd5b6040518060a001604052803373ffffffffffffffffffffffffffffffffffffffff168152602001846003811115612ce757612ce6613c21565b5b815260200183815260200182815260200160006003811115612d0c57612d0b613c21565b5b815250600260003373ffffffffffffffffffffffffffffffffffffffff1673ffffffffffffffffffffffffffffffffffffffff16815260200190815260200160002060008201518160000160006101000a81548173ffffffffffffffffffffffffffffffffffffffff021916908373ffffffffffffffffffffffffffffffffffffffff16021790555060208201518160000160146101000a81548160ff02191690836003811115612dc057612dbf613c21565b5b02179055506040820151816001019081612dda91906154ab565b506060820151816002019081612df091906154ab565b5060808201518160030160006101000a81548160ff02191690836003811115612e1c57612e1b613c21565b5b02179055509050506003339080600181540180825580915050600190039060005260206000200160009091909190916101000a81548173ffffffffffffffffffffffffffffffffffffffff021916908373ffffffffffffffffffffffffffffffffffffffff160217905550505050565b60606000600660008473ffffffffffffffffffffffffffffffffffffffff1673ffffffffffffffffffffffffffffffffffffffff168152602001908152602001600020805480602002602001604051908101604052809291908181526020018280548015612f1957602002820191906000526020600020905b815481526020019060010190808311612f05575b505050505090506000815167ffffffffffffffff811115612f3d57612f3c61440e565b5b604051908082528060200260200182016040528015612f7657816020015b612f63613a8c565b815260200190600190039081612f5b5790505b50905060005b8251811015612fd357612fa8838281518110612f9b57612f9a614e31565b5b6020026020010151611828565b828281518110612fbb57612fba614e31565b5b60200260200101819052508080600101915050612f7c565b508092505050919050565b60016020528060005260406000206000915090508060000180546130019061487c565b80601f016020809104026020016040519081016040528092919081815260200182805461302d9061487c565b801561307a5780601f1061304f5761010080835404028352916020019161307a565b820191906000526020600020905b81548152906001019060200180831161305d57829003601f168201915b50505050509080600101805461308f9061487c565b80601f01602080910402602001604051908101604052809291908181526020018280546130bb9061487c565b80156131085780601f106130dd57610100808354040283529160200191613108565b820191906000526020600020905b8154815290600101906020018083116130eb57829003601f168201915b5050505050908060020160009054906101000a900460ff1690806003016040518060a00160405290816000820160009054906101000a900473ffffffffffffffffffffffffffffffffffffffff1673ffffffffffffffffffffffffffffffffffffffff1673ffffffffffffffffffffffffffffffffffffffff1681526020016000820160149054906101000a900460ff1660038111156131ab576131aa613c21565b5b60038111156131bd576131bc613c21565b5b81526020016001820180546131d19061487c565b80601f01602080910402602001604051908101604052809291908181526020018280546131fd9061487c565b801561324a5780601f1061321f5761010080835404028352916020019161324a565b820191906000526020600020905b81548152906001019060200180831161322d57829003601f168201915b505050505081526020016002820180546132639061487c565b80601f016020809104026020016040519081016040528092919081815260200182805461328f9061487c565b80156132dc5780601f106132b1576101008083540402835291602001916132dc565b820191906000526020600020905b8154815290600101906020018083116132bf57829003601f168201915b505050505081526020016003820160009054906101000a900460ff16600381111561330a57613309613c21565b5b600381111561331c5761331b613c21565b5b8152505090806007016040518060a00160405290816000820160009054906101000a900473ffffffffffffffffffffffffffffffffffffffff1673ffffffffffffffffffffffffffffffffffffffff1673ffffffffffffffffffffffffffffffffffffffff1681526020016000820160149054906101000a900460ff1660038111156133ab576133aa613c21565b5b60038111156133bd576133bc613c21565b5b81526020016001820180546133d19061487c565b80601f01602080910402602001604051908101604052809291908181526020018280546133fd9061487c565b801561344a5780601f1061341f5761010080835404028352916020019161344a565b820191906000526020600020905b81548152906001019060200180831161342d57829003601f168201915b505050505081526020016002820180546134639061487c565b80601f016020809104026020016040519081016040528092919081815260200182805461348f9061487c565b80156134dc5780601f106134b1576101008083540402835291602001916134dc565b820191906000526020600020905b8154815290600101906020018083116134bf57829003601f168201915b505050505081526020016003820160009054906101000a900460ff16600381111561350a57613509613c21565b5b600381111561351c5761351b613c21565b5b815250509080600b016040518060a00160405290816000820160009054906101000a900473ffffffffffffffffffffffffffffffffffffffff1673ffffffffffffffffffffffffffffffffffffffff1673ffffffffffffffffffffffffffffffffffffffff1681526020016000820160149054906101000a900460ff1660038111156135ab576135aa613c21565b5b60038111156135bd576135bc613c21565b5b81526020016001820180546135d19061487c565b80601f01602080910402602001604051908101604052809291908181526020018280546135fd9061487c565b801561364a5780601f1061361f5761010080835404028352916020019161364a565b820191906000526020600020905b81548152906001019060200180831161362d57829003601f168201915b505050505081526020016002820180546136639061487c565b80601f016020809104026020016040519081016040528092919081815260200182805461368f9061487c565b80156136dc5780601f106136b1576101008083540402835291602001916136dc565b820191906000526020600020905b8154815290600101906020018083116136bf57829003601f168201915b505050505081526020016003820160009054906101000a900460ff16600381111561370a57613709613c21565b5b600381111561371c5761371b613c21565b5b815250509080600f015490806010015490806011015490806012015490806013015490508b565b600460009054906101000a900473ffffffffffffffffffffffffffffffffffffffff1673ffffffffffffffffffffffffffffffffffffffff163373ffffffffffffffffffffffffffffffffffffffff16146137d3576040517f08c379a00000000000000000000000000000000000000000000000000000000081526004016137ca90614ed2565b60405180910390fd5b600160038111156137e7576137e6613c21565b5b600260008373ffffffffffffffffffffffffffffffffffffffff1673ffffffffffffffffffffffffffffffffffffffff16815260200190815260200160002060030160009054906101000a900460ff16600381111561384957613848613c21565b5b14613889576040517f08c379a000000000000000000000000000000000000000000000000000000000815260040161388090614f64565b60405180910390fd5b6003600260008373ffffffffffffffffffffffffffffffffffffffff1673ffffffffffffffffffffffffffffffffffffffff16815260200190815260200160002060030160006101000a81548160ff021916908360038111156138ef576138ee613c21565b5b02179055508073ffffffffffffffffffffffffffffffffffffffff167fb6e1998480cbed8ef9ba38ba6de031342779ea915a308f8c4294fb114ee941f760405160405180910390a250565b60606000600760008473ffffffffffffffffffffffffffffffffffffffff1673ffffffffffffffffffffffffffffffffffffffff1681526020019081526020016000208054806020026020016040519081016040528092919081815260200182805480156139c757602002820191906000526020600020905b8154815260200190600101908083116139b3575b505050505090506000815167ffffffffffffffff8111156139eb576139ea61440e565b5b604051908082528060200260200182016040528015613a2457816020015b613a11613a8c565b815260200190600190039081613a095790505b50905060005b8251811015613a8157613a56838281518110613a4957613a48614e31565b5b6020026020010151611828565b828281518110613a6957613a68614e31565b5b60200260200101819052508080600101915050613a2a565b508092505050919050565b604051806101600160405280606081526020016060815260200160006003811115613aba57613ab9613c21565b5b8152602001613ac7613b0a565b8152602001613ad4613b0a565b8152602001613ae1613b0a565b815260200160008152602001600081526020016000815260200160008152602001600081525090565b6040518060a00160405280600073ffffffffffffffffffffffffffffffffffffffff16815260200160006003811115613b4657613b45613c21565b5b8152602001606081526020016060815260200160006003811115613b6d57613b6c613c21565b5b81525090565b6000604051905090565b600080fd5b600080fd5b600073ffffffffffffffffffffffffffffffffffffffff82169050919050565b6000613bb282613b87565b9050919050565b613bc281613ba7565b8114613bcd57600080fd5b50565b600081359050613bdf81613bb9565b92915050565b600060208284031215613bfb57613bfa613b7d565b5b6000613c0984828501613bd0565b91505092915050565b613c1b81613ba7565b82525050565b7f4e487b7100000000000000000000000000000000000000000000000000000000600052602160045260246000fd5b60048110613c6157613c60613c21565b5b50565b6000819050613c7282613c50565b919050565b6000613c8282613c64565b9050919050565b613c9281613c77565b82525050565b600081519050919050565b600082825260208201905092915050565b60005b83811015613cd2578082015181840152602081019050613cb7565b60008484015250505050565b6000601f19601f8301169050919050565b6000613cfa82613c98565b613d048185613ca3565b9350613d14818560208601613cb4565b613d1d81613cde565b840191505092915050565b60048110613d3957613d38613c21565b5b50565b6000819050613d4a82613d28565b919050565b6000613d5a82613d3c565b9050919050565b613d6a81613d4f565b82525050565b600060a082019050613d856000830188613c12565b613d926020830187613c89565b8181036040830152613da48186613cef565b90508181036060830152613db88185613cef565b9050613dc76080830184613d61565b9695505050505050565b6000819050919050565b613de481613dd1565b8114613def57600080fd5b50565b600081359050613e0181613ddb565b92915050565b60008060408385031215613e1e57613e1d613b7d565b5b6000613e2c85828601613df2565b9250506020613e3d85828601613bd0565b9150509250929050565b600081519050919050565b600082825260208201905092915050565b6000819050602082019050919050565b600082825260208201905092915050565b6000613e8f82613c98565b613e998185613e73565b9350613ea9818560208601613cb4565b613eb281613cde565b840191505092915050565b60048110613ece57613ecd613c21565b5b50565b6000819050613edf82613ebd565b919050565b6000613eef82613ed1565b9050919050565b613eff81613ee4565b82525050565b613f0e81613ba7565b82525050565b613f1d81613c77565b82525050565b613f2c81613d4f565b82525050565b600060a083016000830151613f4a6000860182613f05565b506020830151613f5d6020860182613f14565b5060408301518482036040860152613f758282613e84565b91505060608301518482036060860152613f8f8282613e84565b9150506080830151613fa46080860182613f23565b508091505092915050565b613fb881613dd1565b82525050565b6000610160830160008301518482036000860152613fdc8282613e84565b91505060208301518482036020860152613ff68282613e84565b915050604083015161400b6040860182613ef6565b50606083015184820360608601526140238282613f32565b9150506080830151848203608086015261403d8282613f32565b91505060a083015184820360a08601526140578282613f32565b91505060c083015161406c60c0860182613faf565b5060e083015161407f60e0860182613faf565b50610100830151614094610100860182613faf565b506101208301516140a9610120860182613faf565b506101408301516140be610140860182613faf565b508091505092915050565b60006140d58383613fbe565b905092915050565b6000602082019050919050565b60006140f582613e47565b6140ff8185613e52565b93508360208202850161411185613e63565b8060005b8581101561414d578484038952815161412e85826140c9565b9450614139836140dd565b925060208a01995050600181019050614115565b50829750879550505050505092915050565b6000602082019050818103600083015261417981846140ea565b905092915050565b600081519050919050565b600082825260208201905092915050565b6000819050602082019050919050565b60006141b98383613f32565b905092915050565b6000602082019050919050565b60006141d982614181565b6141e3818561418c565b9350836020820285016141f58561419d565b8060005b85811015614231578484038952815161421285826141ad565b945061421d836141c1565b925060208a019950506001810190506141f9565b50829750879550505050505092915050565b6000602082019050818103600083015261425d81846141ce565b905092915050565b61426e81613dd1565b82525050565b60006020820190506142896000830184614265565b92915050565b6000602082840312156142a5576142a4613b7d565b5b60006142b384828501613df2565b91505092915050565b60006101608301600083015184820360008601526142da8282613e84565b915050602083015184820360208601526142f48282613e84565b91505060408301516143096040860182613ef6565b50606083015184820360608601526143218282613f32565b9150506080830151848203608086015261433b8282613f32565b91505060a083015184820360a08601526143558282613f32565b91505060c083015161436a60c0860182613faf565b5060e083015161437d60e0860182613faf565b50610100830151614392610100860182613faf565b506101208301516143a7610120860182613faf565b506101408301516143bc610140860182613faf565b508091505092915050565b600060208201905081810360008301526143e181846142bc565b905092915050565b60006020820190506143fe6000830184613c12565b92915050565b600080fd5b600080fd5b7f4e487b7100000000000000000000000000000000000000000000000000000000600052604160045260246000fd5b61444682613cde565b810181811067ffffffffffffffff821117156144655761446461440e565b5b80604052505050565b6000614478613b73565b9050614484828261443d565b919050565b600067ffffffffffffffff8211156144a4576144a361440e565b5b6144ad82613cde565b9050602081019050919050565b82818337600083830152505050565b60006144dc6144d784614489565b61446e565b9050828152602081018484840111156144f8576144f7614409565b5b6145038482856144ba565b509392505050565b600082601f8301126145205761451f614404565b5b81356145308482602086016144c9565b91505092915050565b600080604083850312156145505761454f613b7d565b5b600083013567ffffffffffffffff81111561456e5761456d613b82565b5b61457a8582860161450b565b925050602083013567ffffffffffffffff81111561459b5761459a613b82565b5b6145a78582860161450b565b9150509250929050565b600481106145be57600080fd5b50565b6000813590506145d0816145b1565b92915050565b6000806000606084860312156145ef576145ee613b7d565b5b60006145fd868287016145c1565b935050602084013567ffffffffffffffff81111561461e5761461d613b82565b5b61462a8682870161450b565b925050604084013567ffffffffffffffff81111561464b5761464a613b82565b5b6146578682870161450b565b9150509250925092565b61466a81613ee4565b82525050565b600060a0830160008301516146886000860182613f05565b50602083015161469b6020860182613f14565b50604083015184820360408601526146b38282613e84565b915050606083015184820360608601526146cd8282613e84565b91505060808301516146e26080860182613f23565b508091505092915050565b6000610160820190508181036000830152614708818e613cef565b9050818103602083015261471c818d613cef565b905061472b604083018c614661565b818103606083015261473d818b614670565b90508181036080830152614751818a614670565b905081810360a08301526147658189614670565b905061477460c0830188614265565b61478160e0830187614265565b61478f610100830186614265565b61479d610120830185614265565b6147ab610140830184614265565b9c9b505050505050505050505050565b7f566572696669636174696f6e20616c726561647920726571756573746564206f60008201527f7220617070726f7665642e000000000000000000000000000000000000000000602082015250565b6000614817602b83613ca3565b9150614822826147bb565b604082019050919050565b600060208201905081810360008301526148468161480a565b9050919050565b7f4e487b7100000000000000000000000000000000000000000000000000000000600052602260045260246000fd5b6000600282049050600182168061489457607f821691505b6020821081036148a7576148a661484d565b5b50919050565b7f4f6e6c79206d616e756661637475726572732063616e20706572666f726d207460008201527f68697320616374696f6e2e000000000000000000000000000000000000000000602082015250565b6000614909602b83613ca3565b9150614914826148ad565b604082019050919050565b60006020820190508181036000830152614938816148fc565b9050919050565b7f496e76616c6964206469737472696275746f7220616464726573732e00000000600082015250565b6000614975601c83613ca3565b91506149808261493f565b602082019050919050565b600060208201905081810360008301526149a481614968565b9050919050565b7f50726f647563742063616e6e6f74206265207368697070656420746f2064697360008201527f7472696275746f722e0000000000000000000000000000000000000000000000602082015250565b6000614a07602983613ca3565b9150614a12826149ab565b604082019050919050565b60006020820190508181036000830152614a36816149fa565b9050919050565b7f4f6e6c7920746865206d616e756661637475726572207468617420637265617460008201527f6564207468652070726f647563742063616e207368697020746f20746865206460208201527f69737472696275746f722e000000000000000000000000000000000000000000604082015250565b6000614abf604b83613ca3565b9150614aca82614a3d565b606082019050919050565b60006020820190508181036000830152614aee81614ab2565b9050919050565b7f596f752063616e6e6f7420736869702070726f6475637420746f20796f75727360008201527f656c660000000000000000000000000000000000000000000000000000000000602082015250565b6000614b51602383613ca3565b9150614b5c82614af5565b604082019050919050565b60006020820190508181036000830152614b8081614b44565b9050919050565b600081549050614b968161487c565b9050919050565b60008190508160005260206000209050919050565b60006020601f8301049050919050565b600082821b905092915050565b600060088302614bff7fffffffffffffffffffffffffffffffffffffffffffffffffffffffffffffffff82614bc2565b614c098683614bc2565b95508019841693508086168417925050509392505050565b6000819050919050565b6000614c46614c41614c3c84613dd1565b614c21565b613dd1565b9050919050565b6000819050919050565b614c6083614c2b565b614c74614c6c82614c4d565b848454614bcf565b825550505050565b600090565b614c89614c7c565b614c94818484614c57565b505050565b5b81811015614cb857614cad600082614c81565b600181019050614c9a565b5050565b601f821115614cfd57614cce81614b9d565b614cd784614bb2565b81016020851015614ce6578190505b614cfa614cf285614bb2565b830182614c99565b50505b505050565b600082821c905092915050565b6000614d2060001984600802614d02565b1980831691505092915050565b6000614d398383614d0f565b9150826002028217905092915050565b818103614d57575050614e2f565b614d6082614b87565b67ffffffffffffffff811115614d7957614d7861440e565b5b614d83825461487c565b614d8e828285614cbc565b6000601f831160018114614dbd5760008415614dab578287015490505b614db58582614d2d565b865550614e28565b601f198416614dcb87614b9d565b9650614dd686614b9d565b60005b82811015614dfe57848901548255600182019150600185019450602081019050614dd9565b86831015614e1b5784890154614e17601f891682614d0f565b8355505b6001600288020188555050505b5050505050505b565b7f4e487b7100000000000000000000000000000000000000000000000000000000600052603260045260246000fd5b7f4f6e6c792074686520636f6e7472616374206f776e65722063616e207065726660008201527f6f726d207468697320616374696f6e2e00000000000000000000000000000000602082015250565b6000614ebc603083613ca3565b9150614ec782614e60565b604082019050919050565b60006020820190508181036000830152614eeb81614eaf565b9050919050565b7f566572696669636174696f6e206e6f7420726571756573746564206f7220616c60008201527f72656164792070726f6365737365642e00000000000000000000000000000000602082015250565b6000614f4e603083613ca3565b9150614f5982614ef2565b604082019050919050565b60006020820190508181036000830152614f7d81614f41565b9050919050565b7f4f6e6c79206469737472696275746f72732063616e20706572666f726d20746860008201527f697320616374696f6e2e00000000000000000000000000000000000000000000602082015250565b6000614fe0602a83613ca3565b9150614feb82614f84565b604082019050919050565b6000602082019050818103600083015261500f81614fd3565b9050919050565b7f496e76616c69642072657461696c657220616464726573732e00000000000000600082015250565b600061504c601983613ca3565b915061505782615016565b602082019050919050565b6000602082019050818103600083015261507b8161503f565b9050919050565b7f50726f647563742063616e6e6f74206265207368697070656420746f2072657460008201527f61696c65722e0000000000000000000000000000000000000000000000000000602082015250565b60006150de602683613ca3565b91506150e982615082565b604082019050919050565b6000602082019050818103600083015261510d816150d1565b9050919050565b7f4f6e6c79207468652061737369676e6564206469737472696275746f7220636160008201527f6e207368697020746f207468652072657461696c65722e000000000000000000602082015250565b6000615170603783613ca3565b915061517b82615114565b604082019050919050565b6000602082019050818103600083015261519f81615163565b9050919050565b7f496e76616c6964206974656d2049440000000000000000000000000000000000600082015250565b60006151dc600f83613ca3565b91506151e7826151a6565b602082019050919050565b6000602082019050818103600083015261520b816151cf565b9050919050565b7f4f6e6c792072657461696c6572732063616e20706572666f726d20746869732060008201527f616374696f6e2e00000000000000000000000000000000000000000000000000602082015250565b600061526e602783613ca3565b915061527982615212565b604082019050919050565b6000602082019050818103600083015261529d81615261565b9050919050565b7f4f6e6c79207468652061737369676e65642072657461696c65722063616e207360008201527f656c6c20746865206974656d2e00000000000000000000000000000000000000602082015250565b6000615300602d83613ca3565b915061530b826152a4565b604082019050919050565b6000602082019050818103600083015261532f816152f3565b9050919050565b7f4661696c656420746f2073656c6c2070726f6475637400000000000000000000600082015250565b600061536c601683613ca3565b915061537782615336565b602082019050919050565b6000602082019050818103600083015261539b8161535f565b9050919050565b7f4f6e6c79206d616e756661637475726572732063616e2063726561746520697460008201527f656d732e00000000000000000000000000000000000000000000000000000000602082015250565b60006153fe602483613ca3565b9150615409826153a2565b604082019050919050565b6000602082019050818103600083015261542d816153f1565b9050919050565b7f4e487b7100000000000000000000000000000000000000000000000000000000600052601160045260246000fd5b600061546e82613dd1565b91507fffffffffffffffffffffffffffffffffffffffffffffffffffffffffffffffff82036154a05761549f615434565b5b600182019050919050565b6154b482613c98565b67ffffffffffffffff8111156154cd576154cc61440e565b5b6154d7825461487c565b6154e2828285614cbc565b600060209050601f8311600181146155155760008415615503578287015190505b61550d8582614d2d565b865550615575565b601f19841661552386614b9d565b60005b8281101561554b57848901518255600182019150602085019450602081019050615526565b868310156155685784890151615564601f891682614d0f565b8355505b6001600288020188555050505b505050505050565b7f4f776e65722063616e6e6f7420726567697374657220616761696e0000000000600082015250565b60006155b3601b83613ca3565b91506155be8261557d565b602082019050919050565b600060208201905081810360008301526155e2816155a6565b9050919050565b7f5573657220697320616c726561647920726567697374657265642e0000000000600082015250565b600061561f601b83613ca3565b915061562a826155e9565b602082019050919050565b6000602082019050818103600083015261564e81615612565b905091905056fea2646970667358221220134301629ab9c402a1f20cb0b3d175eb9313c900c4f20c295f28c6c950d7fac364736f6c63430008180033",
  "linkReferences": {},
  "deployedLinkReferences": {}
}